:1001F3003F065B4F666D7D077F6F777C395E797154
:080203008040201008040201F4
:06023E00010800010900A7
:10001E00120003751340E50B75F00A849001F393FB
:10002E00F512E50B75F00A84E5F093F511751040A5
:10003E00750F40E50A75F00A8493F50EE50A75F022
:10004E000A84E5F093F50D750C40D292D2937F326F
:10005E007E001201D512020BEF60F324BE60151460
:10006E00601D1460252403702AE50AC394135023DF
:10007E00050A801FE50AD394004018150A8014E57E
:10008E000BC39413500D050B8009E50BD394004060
:10009E0002150BE50A75F00A849001F393F512E54B
:1000AE000A75F00A84E5F093F511E50B75F00A84F4
:1000BE0093F50EE50B75F00A84E5F093F50D12023B
:0600CE000BEF608A80F8D0
:10020B00E4FF20B4027F4120B5027F4220B6027F7B
:06021B004320B7027F44FE
:0102210022BA
:090234007F08780CE4F608DFFCF9
:01023D00229E
:10022200120234C2AF758DFC758B66D28ED2ABD200
:02023200AF22F9
:1001D500D3EF9400EE940040147D717C00ED1D700A
:0D01E500011CED4C70F7EF1F70E61E80E36B
:0101F20022EA
:10000300758911C292C293C294C295C296C2977562
:080013000A06750B0602022229
:03001B000201607F
:0D016000C0E0C083C082C0D075D000C000D8
:10016D00C28E758DFC758B66D28E7580FFD2A7C23F
:10017D00A7740C2508F8E6F580D2A6C2A6E508906E
:10018D00020393F4F580D2A7C2A70508530807050B
:10019D0009E509C394144003750900E509C3950ADF
:1001AD005006C294D2958004C294C295E509C395B8
:0D01BD000B5006D296C2978004C296C297DE
:0B01CA00D000D0D0D082D083D0E03233
:030000000200D427
:0C00D400787FE4F6D8FD75811302011B53
:1000E00002001EE493A3F8E493A34003F68001F218
:1000F00008DFF48029E493A3F85407240CC8C33321
:10010000C4540F4420C8834004F456800146F6DFEF
:10011000E4800B010204081020408090023EE47E3F
:10012000019360BCA3FF543F30E509541FFEE493E4
:10013000A360010ECF54C025E060A840B8E493A3AB
:10014000FAE493A3F8E493A3C8C582C8CAC583CAD6
:10015000F0A3C8C582C8CAC583CADFE9DEE780BE8E
:0102440000B9
:00000001FF
