:0600EA00C1000208000045
:03001B000200AA36
:0400AA00C0E0C0D022
:1000AE00C28E758DFC758B66D28E0509E5097002C0
:1000BE000508B4E80DE508B40308750800750900D5
:1000CE00D200D3E5099464E50894005006C290C2AC
:0700DE00A38004D290D2A31D
:0500E500D0D0D0E03294
:10000300758911758DFC758B66D2ABD2AFD28E30EC
:0800130000FDC200B29180F76C
:0300000002001EDD
:0C001E00787FE4F6D8FD758120020065B3
:10002A00020003E493A3F8E493A34003F68001F2E9
:10003A0008DFF48029E493A3F85407240CC8C333D7
:10004A00C4540F4420C8834004F456800146F6DFA6
:10005A00E4800B01020408102040809000EAE47E4C
:10006A00019360BCA3FF543F30E509541FFEE4939B
:10007A00A360010ECF54C025E060A840B8E493A362
:10008A00FAE493A3F8E493A3C8C582C8CAC583CA8D
:10009A00F0A3C8C582C8CAC583CADFE9DEE780BE45
:0100F000000F
:00000001FF
