:1002AC003F065B4F666D7D077F6F777C395E79719A
:0802BC0080402010080402013B
:03032900010800C8
:0702FD00D2A0120304D2A1FC
:040304007F0ADFFE8F
:0103080022D2
:0A031500D2A1120304D2A0020304D7
:0D02F0001202FDC2A0120304C2A102030409
:100003007D017C00C2A01202FFD2A0120304ED1DE9
:0700130070011C144C70F792
:01001A0022C3
:02029300AE07B4
:100295007D08EE3392A0EE25E0FED2A1120304C242
:0602A500A1120304DDECD0
:0102AB002230
:100276007D08D2A0D2A1120304EE25E0FE30A00331
:0C028600430601C2A1120304DDEAAF062A
:010292002249
:0802C4001202F0AF06120293D2
:0E02CC001202FDA2A09200C2A1120304A20021
:0102DA002201
:0C030900A20092A01202FFC2A102030495
:1001E600AE07AC03AB051202C450028018EB4440C4
:1001F600FF1202931202CC5002800AAF041202933D
:0D0206001202CC5003020003120003C322B9
:10023900AC05AE071202C45002800CEC4440FF1218
:0F02490002931202CC5003020003120003C322DF
:02021300AE0734
:100215001202F0EE04FF1202931202CC50061200F5
:10022500037F0122120276AE07D2001203091200E3
:0302350003AF060E
:0102380022A3
:03001B0002015B84
:0D015B00C0E0C083C082C0D075D000C000DD
:10016800C28E758DFC758B66D28E7580FFD2A7C244
:10017800A774092508F8E6F580D2A6C2A6E5089076
:0F01880002BC93F4F580D2A7C2A705085308075D
:0B019700D000D0D0D082D083D0E03266
:09031F007F087809E4F608DFFC10
:0103280022B2
:1002DB0012031F758911C2AF758DFC758B66D2AB7E
:0502EB00D2AFD28E220B
:1001A200EF75F064849002AC93F510EF75F00A8459
:1001B20075F00A84E5F093F50FEF75F00A84E5F027
:1001C20093F50EED75F0648493F50BED75F00A84EA
:1001D20075F00A84E5F093F50AED75F00A84E5F00E
:0401E20093F5092266
:10025800D3EF9400EE940040147D717C00ED1D7086
:0D026800011CED4C70F7EF1F70E61E80E3E7
:010275002266
:10001E00E4FAC2A41202DB1203159002ADE493F5CA
:10002E0010A3E493F50FA3E493F50EA3E493F50D5B
:10003E00A3E493F50CA3E493F50BA3E493F50AA3C1
:10004E00E493F5097FD07E0712025812031FEA14BB
:10005E00601D14602A146037146044240470497DB6
:10006E00017F901202397F901202138F1180397D19
:10007E00027F901202397F901202138F1280297D17
:10008E00037F901202397F90120213A9078019E4A0
:10009E00FD7F901202397F901202138F138009ABED
:1000AE0001E4FD7F901201E60AEAD394044002E4D3
:1000BE00FAAD01AF111201A27F327E0012025880FA
:0100CE008DA4
:030000000200CF2C
:0C00CF00787FE4F6D8FD75812002011650
:1000DB0002001EE493A3F8E493A34003F68001F21D
:1000EB0008DFF48029E493A3F85407240CC8C33326
:1000FB00C4540F4420C8834004F456800146F6DFF5
:10010B00E4800B0102040810204080900329E47E58
:10011B00019360BCA3FF543F30E509541FFEE493E9
:10012B00A360010ECF54C025E060A840B8E493A3B0
:10013B00FAE493A3F8E493A3C8C582C8CAC583CADB
:10014B00F0A3C8C582C8CAC583CADFE9DEE780BE93
:01032C0000D0
:00000001FF
