:10030C003F065B4F666D7D077F6F777C395E797139
:08031C008040201008040201DA
:10032400C101C1000115000216000004090000000B
:0403340000010800BC
:030003000202787E
:10027800C0E0C0D075D000C004C005C006C007C229
:100288008CAF8CEFFEAD8A7C00E42DFFEC3EFEE4E3
:100298008F0C8E0BF50AF509F58CF58AD200C2A8E9
:0D02A800D007D006D005D004D0D0D0E03271
:03000B00020343AA
:09034300C28CD201D200C2A83222
:03001B00020231AD
:0D023100C0E0C083C082C0D075D000C00006
:10023E00C28E758DFC758B66D28E7580FFD2A7C26D
:10024E00A7740D2508F8E6F580D2A6C2A6E508909B
:0F025E00031C93F4F580D2A7C2A7050853080725
:0B026D00D000D0D0D082D083D0E0328F
:090339007F08780DE4F608DFFCF2
:010342002298
:1002D500D3EF9400EE940040147D717C00ED1D7009
:0D02E500011CED4C70F7EF1F70E61E80E36A
:0102F20022E9
:1002B500120339758911C2AFE4F58CF58AD2A97597
:1002C5008DFC758B66D2ABD28EC2A8C288D2AF2206
:0A000E00D2B3E4FF0FBF0AFCC2B337
:0100180022C5
:10001E000515E51575F0648490030C93F514E5153C
:10002E0075F00A8475F00A84E5F093F513E51575FD
:10003E00F00A84E5F093F512C3E51794A0E5169443
:10004E000F500330010FC201750D40750E40750F34
:10005E004075104022AE16AF177C007D0A1201DCEF
:10006E00740C2DF58274033CF583E493F50DAE16F6
:10007E00AF177C007D0A1201DC7C007D0A1201DCC8
:10008E00740C2DF58274033CF583E4932480F50EF5
:10009E00AE16AF177C007D641201DC7C007D0A1267
:1000AE0001DC740C2DF58274033CF583E493F50F9B
:1000BE00AE16AF177C037DE81201DC740C2FF582AF
:0A00CE0074033EF583E493F510225D
:1002F300D28CD2A83000FDC200E4751BD2751A045B
:08030300F519F518AE1AAF1B45
:01030B0022CF
:100164001202B590030DE493F514A3E493F513A3DD
:10017400E493F512A3E493F511A3E493F510A3E437
:1001840093F50FA3E493F50EA3E493F50D7FD07ECE
:10019400071202D5120339E51575F0648490030C37
:1001A40093F514E51575F00A8475F00A84E5F09367
:1001B400F513E51575F00A84E5F093F512D2B21241
:1001C400000E30B2FD1202F38E168F1712001E7F3E
:0801D400C87E001202D580E58F
:030000000200D823
:0C00D800787FE4F6D8FD75812002011F3E
:1001DC00BC000BBE0029EF8DF084FFADF022E4CC07
:1001EC00F875F008EF2FFFEE33FEEC33FCEE9DECD0
:1001FC00984005FCEE9DFE0FD5F0E9E4CEFD22ED16
:10020C00F8F5F0EE8420D21CFEADF075F008EF2F5F
:10021C00FFED33FD4007985006D5F0F222C398FD50
:05022C000FD5F0EA22ED
:1000E400020164E493A3F8E493A34003F68001F2CD
:1000F40008DFF48029E493A3F85407240CC8C3331D
:10010400C4540F4420C8834004F456800146F6DFEB
:10011400E4800B0102040810204080900324E47E54
:10012400019360BCA3FF543F30E509541FFEE493E0
:10013400A360010ECF54C025E060A840B8E493A3A7
:10014400FAE493A3F8E493A3C8C582C8CAC583CAD2
:10015400F0A3C8C582C8CAC583CADFE9DEE780BE8A
:0103380000C4
:00000001FF
