:100003003F065B4F666D7D077F6F777C395E797145
:080013008040201008040201E6
:0301CD0001080026
:03001B00020135AA
:0D013500C0E0C083C082C0D075D000C00003
:10014200C28E758DFC758B66D28E7580FFD2A7C26A
:10015200A774092508F8E6F580D2A6C2A6E508909C
:0F016200001393F4F580D2A7C2A705085308072E
:0B017100D000D0D0D082D083D0E0328C
:0901C3007F087809E4F608DFFC6E
:0101CC002210
:10017C00D3EF9400EE940040147D717C00ED1D7063
:0D018C00011CED4C70F7EF1F70E61E80E3C4
:010199002243
:0701AF007F147E0012017CA9
:0C01B600E4FF20B4027F2B20B5027F2D57
:0101C200221A
:10019A001201C3758911C2AF758DFC758B66D2AB1E
:0501AA00D2AFD28E224D
:1000AA007B1212019A900004E493F510A3E493F5ED
:1000BA000FA3E493F50EA3E493F50DA3E493F50CD3
:1000CA00A3E493F50BA3E493F50AA3E493F5097F5C
:1000DA00D07E0712017C1201C3EB75F00A849000EE
:1000EA000393F50AEB75F00A84E5F093F50912011A
:1000FA00AFEF60FA1201AFEF60F4BF2B07EBC394C6
:10010A001F50010BBF2D07EBD3940040011BEB7569
:10011A00F00A8490000393F50AEB75F00A84E5F07F
:0B012A0093F5091201B6EF60C580F8E4
:0300000002001EDD
:0C001E00787FE4F6D8FD758110020065C3
:10002A000200AAE493A3F8E493A34003F68001F242
:10003A0008DFF48029E493A3F85407240CC8C333D7
:10004A00C4540F4420C8834004F456800146F6DFA6
:10005A00E4800B01020408102040809001CDE47E68
:10006A00019360BCA3FF543F30E509541FFEE4939B
:10007A00A360010ECF54C025E060A840B8E493A362
:10008A00FAE493A3F8E493A3C8C582C8CAC583CA8D
:10009A00F0A3C8C582C8CAC583CADFE9DEE780BE45
:0101D000002E
:00000001FF
