:10103F003F065B4F666D7D077F6F777C395E7971F9
:08104F0080402010080402019A
:100E9400C106083A00000000000000000242007D84
:100EA400013900C103C182C185C104014400014567
:100EB40000C101C10002460000042B000000000133
:100EC4002100022200000224000001260002270063
:050ED4000002290000EE
:03000300020EDA10
:100EDA00C0E0C0D075D000C004C005C006C007C2BB
:100EEA008CAF8CEFFEAD8A7C00E42DFFEC3EFEE475
:100EFA008F2E8E2DF52CF52BF58CF58AD200C2A8F3
:0D0F0A00D007D006D005D004D0D0D0E03202
:03000B000210D709
:0910D700C28CD201D200C2A83281
:03001B00020C08CC
:0F0C0800C0E0C0F0C083C082C0D075D000C00073
:100C1700C28E758DFC758B66D28E7580FFD2A7C28A
:100C2700A774312521F8E6F580D2A6C2A6E5219062
:100C3700104F93F4F580D2A7C2A70521532107E5EA
:100C47002364C745227008F522F523D206800805DC
:100C570023E5237002052230033C0525E5257002B4
:100C6700052464644524702EF524F5250539E539F6
:100C770075F00A84E5F090103F93F531E53975F08A
:100C87000A8475F00A84E5F0934480F532E53975F6
:100C9700F0648493F5330526E526C3941440037561
:100CA7002600E526C3952F500F300206C294D29531
:100CB700800AC295D2948004C294C295E526C39552
:100CC70030500F300206C297D296800AC296D2974A
:100CD7008004C296C297200558E528B4900DE527F1
:100CE700B4010875270075280080080528E52870D5
:100CF700020527C3E5289464E5279400502AE539BF
:100D070075F00A84E5F090103F93F531E53975F0F9
:100D17000A8475F00A84E5F0934480F532E5397565
:100D2700F0648493F53380097531007532007533AB
:100D370000300427052AE52A70020529B4900BE53F
:100D470029B40106752900752A00D3E52A9464E5BC
:100D57002994005009C2A3C2908007200504D2A39A
:020D6700D29028
:0D0D6900D000D0D0D082D083D0F0D0E032C6
:0910C3007F087831E4F608DFFC37
:0110CC002201
:060FC600C2A37F647E005F
:100FCC00D3EF9400EE940040147D717C00ED1D7005
:0D0FDC00011CED4C70F7EF1F70E61E80E366
:010FE90022E5
:100F17001210C3758911C2AFE4F58CF58AD2A97591
:100F27008DFC758B66D2ABD28EC2A8C288D2AFC2F7
:0E0F370092C293C294C295C296C2970210C392
:0A10B800D2B3E4FF0FBF0AFCC2B37D
:0110C200220B
:100D7600C3E54794A0E546940F500330010FC20126
:100D860075354075364075374075384022AE46AFEA
:100D9600477C007D0A120A96743F2DF58274103C3A
:100DA600F583E493F535AE46AF477C007D0A120A1B
:100DB600967C007D0A120A96743F2DF58274103CCB
:100DC600F583E4932480F536AE46AF477C007D6418
:100DD600120A967C007D0A120A96743F2DF58274DB
:100DE600103CF583E493F537AE46AF477C037DE8C8
:100DF600120A96743F2FF58274103EF583E493F53C
:020E0600382290
:100F4500D28CD2A83000FDC200E47F7A7E07FDFC7A
:100F5500AB2EAA2DA92CA82B120AEBE47B107A271D
:0D0F6500F9F8120B768F0C8E0B8D0A8C099B
:010F7200225C
:0C108600E4FF20B4027F2B20B5027F2D78
:01109200223B
:10080000C2A41210CD120F17AE42AF437C007D0A76
:10081000120A96743F2DF58274103CF583E493F52B
:1008200031AE42AF437C007D0A120A967C007D0AFD
:10083000120A96743F2DF58274103CF583E49324DC
:1008400080F532AE42AF437C007D64120A967C0094
:100850007D0A120A96743F2DF58274103CF583E4EC
:1008600093F533D2B2C28EC2AB1210B830B2FDD201
:10087000ABD28EE4FFEF25E0243AF8E6FC08E6FD73
:10088000EF25E0243CF8A60408A6050FBF03E612F6
:100890000F458E3A8F3BE53B453A6042E53D453C8E
:1008A000603CE53F453E6036E54145406030E53B14
:1008B000253DFFE53A353CFEE53F2FFFE53E3EFE98
:1008C000E5412FCFE5403ECF2402CF3400FEEF7844
:1008D00002CEC313CE13D8F9F5478E468006853A6B
:1008E00046853B47D3E54794F4E5469401400875B7
:1008F0002F107530108024D3E54794C8E546940046
:100900004008752F0A75300A8011D3E5479496E5A3
:100910004694004006752F04753004E5432405FF16
:10092000E43542FED3E5479FE5469E5023E5432448
:10093000FBFDE54234FFFCC3E5479DE5469C4010C6
:10094000300504C203C205E4F52FF530F544F54542
:1009500020051ED3E5479FE5469E40150544E4F576
:1009600045E544B4030BD202752F04753004E4F559
:100970004420052CE54324FBFFE54234FFFEC3E59C
:10098000479FE5469E50190545E4F544E545B40307
:1009900011D204C202752F04753004E4F5458002BB
:1009A000C2047F0A7E00120FCC300605120D76C2FB
:1009B00006121086AB07EB7003020A6C7F147E00F0
:1009C000120FCC121086AB07EB7003020A6CBB2B24
:1009D0001B120FC6D2A3C3E5439496E54294005080
:1009E0000B74052543F543E43542F542BB2D1C123B
:1009F0000FC6D2A3D3E5439464E5429400400C743F
:100A0000FB2543F54374FF3542F542AE42AF437CCC
:100A1000007D0A120A96743F2DF58274103CF5830E
:100A2000E493F531AE42AF437C007D0A120A967C16
:100A3000007D0A120A96743F2DF58274103CF583EE
:100A4000E4932480F532AE42AF437C007D64120A09
:100A5000967C007D0A120A96743F2DF58274103C34
:100A6000F583E493F533121086EF70FAE4FD7F907E
:100A7000120FEA7F90120FA08F08AB08E4FD7F9061
:100A8000120F73E508D394825003020863D203D295
:060A900092D293020863FC
:0710A000D2A01210A7D2A19B
:0410A7007F0ADFFEDF
:0110AB002222
:0A10CD00D2A11210A7D2A00210A7B2
:0D1093001210A0C2A01210A7C2A10210A747
:101057007D017C00C2A01210A2D2A01210A7ED1D24
:0710670070011C144C70F72E
:01106E00225F
:02102600AE0713
:101028007D08EE3392A0EE25E0FED2A11210A7C2F1
:06103800A11210A7DDEC7F
:01103E00228F
:101009007D08D2A0D2A11210A7EE25E0FE30A003E0
:0C101900430601C2A11210A7DDEAAF06D9
:0110250022A8
:08106F00121093AF06121026C7
:0E1077001210A0A2A09207C2A11210A7A207F9
:011085002248
:0C10AC00A20792A01210A2C2A10210A77D
:100F7300AE07AC03AB0512106F50028018EB444070
:100F8300FF1210261210775002800AAF04121026A7
:0D0F93001210775003021057121057C3229E
:100FEA00AC05AE0712106F5002800CEC4440FF12A1
:0F0FFA0010261210775003021057121057C322FF
:020FA000AE079A
:100FA200121093EE04FF1210261210775006121040
:100FB200577F0122121009AE07D2071210AC12108D
:030FC20057AF0620
:010FC5002209
:03000000020E08E5
:0C0E0800787FE4F6D8FD758147020E4F9C
:100A9600BC000BBE0029EF8DF084FFADF022E4CC44
:100AA600F875F008EF2FFFEE33FEEC33FCEE9DEC0D
:100AB600984005FCEE9DFE0FD5F0E9E4CEFD22ED53
:100AC600F8F5F0EE8420D21CFEADF075F008EF2F9D
:100AD600FFED33FD4007985006D5F0F222C398FD8E
:050AE6000FD5F0EA222B
:100AEB00E88FF0A4CC8BF0A42CFCE98EF0A42CFCAA
:100AFB008AF0EDA42CFCEA8EF0A4CDA8F08BF0A428
:100B0B002DCC3825F0FDE98FF0A42CCD35F0FCEB86
:100B1B008EF0A4FEA9F0EB8FF0A4CFC5F02ECD394B
:0F0B2B00FEE43CFCEAA42DCE35F0FDE43CFC22B8
:100B3A0075F008758200EF2FFFEE33FECD33CDCC72
:100B4A0033CCC58233C5829BED9AEC99E5829840F5
:100B5A000CF582EE9BFEED9AFDEC99FC0FD5F0D6D2
:100B6A00E4CEFBE4CDFAE4CCF9A88222B800C1B9FC
:100B7A000059BA002DEC8BF084CFCECDFCE5F0CB3A
:100B8A00F97818EF2FFFEE33FEED33FDEC33FCEB73
:100B9A0033FB10D703994004EB99FB0FD8E5E4F92E
:100BAA00FA227818EF2FFFEE33FEED33FDEC33FC1B
:100BBA00C933C910D7059BE99A4007EC9BFCE99A0F
:100BCA00F90FD8E0E4C9FAE4CCFB2275F010EF2F54
:100BDA00FFEE33FEED33FDCC33CCC833C810D70754
:100BEA009BEC9AE899400AED9BFDEC9AFCE899F88F
:0E0BFA000FD5F0DAE4CDFBE4CCFAE4C8F92222
:100E1400020800E493A3F8E493A34003F68001F2EC
:100E240008DFF48029E493A3F85407240CC8C333DF
:100E3400C4540F4420C8834004F456800146F6DFAE
:100E4400E4800B0102040810204080900E94E47E9C
:100E5400019360BCA3FF543F30E509541FFEE493A3
:100E6400A360010ECF54C025E060A840B8E493A36A
:100E7400FAE493A3F8E493A3C8C582C8CAC583CA95
:100E8400F0A3C8C582C8CAC583CADFE9DEE780BE4D
:010ED9000018
:00000001FF
