:100003003F065B4F666D7D077F6F777C395E797145
:080013008040201008040201E6
:0601EE00010800010900F8
:03001B000201449B
:0D014400C0E0C083C082C0D075D000C000F4
:10015100C28E758DFC758B66D28E7580FFD2A7C25B
:10016100A7740A2508F8E6F580D2A6C2A6E508908C
:10017100001393F4F580D2A7C2A705085308070519
:1001810009E509C394104003750900E509C39512F7
:080191005004C2908002D290DC
:0B019900D000D0D0D082D083D0E03264
:0901E4007F08780AE4F608DFFC4C
:0101ED0022EF
:1001A400D3EF9400EE940040147D717C00ED1D703B
:0D01B400011CED4C70F7EF1F70E61E80E39C
:0101C100221B
:0C01D700E4FF20B4027F2B20B5027F2D36
:0101E30022F9
:1001C2001201E4758911C2AF758DFC758B66D2ABD5
:0501D200D2AFD28E2225
:10001E007513121201C2751208D290900004E49367
:10002E00F511A3E493F510A3E493F50FA3E493F570
:10003E000EA3E493F50DA3E493F50CA3E493F50B53
:10004E00A3E493F50A7FD07E071201A41201E4E522
:10005E001275F00A8490000393F50BE51275F00A01
:10006E0084E5F093F50A7F147E001201A41201D7E5
:10007E00EF60F3BF2B09E512C3940F50020512BFB8
:10008E002D09E512D3940040021512E51275F00AFF
:10009E008490000393F50BE51275F00A84E5F09356
:0A00AE00F50A1201D7EF60BE80F8DA
:030000000200B843
:0C00B800787FE4F6D8FD7581130200FF8C
:1000C40002001EE493A3F8E493A34003F68001F234
:1000D40008DFF48029E493A3F85407240CC8C3333D
:1000E400C4540F4420C8834004F456800146F6DF0C
:1000F400E4800B01020408102040809001EEE47EAD
:10010400019360BCA3FF543F30E509541FFEE49300
:10011400A360010ECF54C025E060A840B8E493A3C7
:10012400FAE493A3F8E493A3C8C582C8CAC583CAF2
:10013400F0A3C8C582C8CAC583CADFE9DEE780BEAA
:0101F400000A
:00000001FF
