:100003003F065B4F666D7D077F6F777C395E797145
:080013008040201008040201E6
:0C026800011300C10001080002090000A1
:03001B000200C21E
:0F00C200C0E0C0F0C083C082C0D075D000C000C5
:1000D100C28E758DFC758B66D28E7580FFD2A7C2DC
:1000E100A7740B2508F8E6F580D2A6C2A6E508900C
:1000F100001393F4F580D2A7C2A70508530807306F
:100101000044050AE50A7002050964644509703670
:10011100F509F50A0513E51375F00A84E5F0900079
:100121000393F510E51375F00A8475F00A84E5F080
:10013100934480F511E51375F0648493F512E5138A
:06014100B4780375130001
:0D014700D000D0D0D082D083D0F0D0E032F4
:090275007F08780BE4F608DFFCB9
:01027E00225D
:10023500D3EF9400EE940040147D717C00ED1D70A9
:0D024500011CED4C70F7EF1F70E61E80E30A
:010252002289
:10025300120275758911C2AF758DFC758B66D2ABB1
:05026300D2AFD28E2293
:10001E00120253900004E493F512A3E493F511A396
:10002E00E493F510A3E493F50FA3E493F50EA3E484
:10003E0093F50DA3E493F50CA3E493F50B7FD07E1B
:10004E0007120235D200120275E4FBFA7C007D0A1B
:10005E00AF03AE021201E074032DF58274003CF57D
:10006E0083E493F50B7C007D0AAF03AE021201E030
:10007E007C007D0A1201E074032DF58274003CF5BC
:10008E0083E4934480F50C7C007D64AF03AE0212D2
:10009E0001E074032FF58274003EF583E493F50DB1
:1000AE007F647E001202350BBB00010AEB64784AB6
:0400BE00709A80FEB6
:03000000020154A6
:0C015400787FE4F6D8FD75812002019B45
:1001E000BC000BBE0029EF8DF084FFADF022E4CC03
:1001F000F875F008EF2FFFEE33FEEC33FCEE9DECCC
:10020000984005FCEE9DFE0FD5F0E9E4CEFD22ED11
:10021000F8F5F0EE8420D21CFEADF075F008EF2F5B
:10022000FFED33FD4007985006D5F0F222C398FD4C
:050230000FD5F0EA22E9
:1001600002001EE493A3F8E493A34003F68001F297
:1001700008DFF48029E493A3F85407240CC8C333A0
:10018000C4540F4420C8834004F456800146F6DF6F
:10019000E4800B0102040810204080900268E47E95
:1001A000019360BCA3FF543F30E509541FFEE49364
:1001B000A360010ECF54C025E060A840B8E493A32B
:1001C000FAE493A3F8E493A3C8C582C8CAC583CA56
:1001D000F0A3C8C582C8CAC583CADFE9DEE780BE0E
:010274000089
:00000001FF
